{
  "_format": "hh-sol-artifact-1",
  "contractName": "DocumentNFT",
  "sourceName": "contracts/contract.sol",
  "abi": [
    {
      "inputs": [],
      "stateMutability": "nonpayable",
      "type": "constructor"
    },
    {
      "inputs": [],
      "name": "AccessControlBadConfirmation",
      "type": "error"
    },
    {
      "inputs": [
        {
          "internalType": "address",
          "name": "account",
          "type": "address"
        },
        {
          "internalType": "bytes32",
          "name": "neededRole",
          "type": "bytes32"
        }
      ],
      "name": "AccessControlUnauthorizedAccount",
      "type": "error"
    },
    {
      "inputs": [
        {
          "internalType": "address",
          "name": "sender",
          "type": "address"
        },
        {
          "internalType": "uint256",
          "name": "tokenId",
          "type": "uint256"
        },
        {
          "internalType": "address",
          "name": "owner",
          "type": "address"
        }
      ],
      "name": "ERC721IncorrectOwner",
      "type": "error"
    },
    {
      "inputs": [
        {
          "internalType": "address",
          "name": "operator",
          "type": "address"
        },
        {
          "internalType": "uint256",
          "name": "tokenId",
          "type": "uint256"
        }
      ],
      "name": "ERC721InsufficientApproval",
      "type": "error"
    },
    {
      "inputs": [
        {
          "internalType": "address",
          "name": "approver",
          "type": "address"
        }
      ],
      "name": "ERC721InvalidApprover",
      "type": "error"
    },
    {
      "inputs": [
        {
          "internalType": "address",
          "name": "operator",
          "type": "address"
        }
      ],
      "name": "ERC721InvalidOperator",
      "type": "error"
    },
    {
      "inputs": [
        {
          "internalType": "address",
          "name": "owner",
          "type": "address"
        }
      ],
      "name": "ERC721InvalidOwner",
      "type": "error"
    },
    {
      "inputs": [
        {
          "internalType": "address",
          "name": "receiver",
          "type": "address"
        }
      ],
      "name": "ERC721InvalidReceiver",
      "type": "error"
    },
    {
      "inputs": [
        {
          "internalType": "address",
          "name": "sender",
          "type": "address"
        }
      ],
      "name": "ERC721InvalidSender",
      "type": "error"
    },
    {
      "inputs": [
        {
          "internalType": "uint256",
          "name": "tokenId",
          "type": "uint256"
        }
      ],
      "name": "ERC721NonexistentToken",
      "type": "error"
    },
    {
      "anonymous": false,
      "inputs": [
        {
          "indexed": true,
          "internalType": "address",
          "name": "owner",
          "type": "address"
        },
        {
          "indexed": true,
          "internalType": "address",
          "name": "approved",
          "type": "address"
        },
        {
          "indexed": true,
          "internalType": "uint256",
          "name": "tokenId",
          "type": "uint256"
        }
      ],
      "name": "Approval",
      "type": "event"
    },
    {
      "anonymous": false,
      "inputs": [
        {
          "indexed": true,
          "internalType": "address",
          "name": "owner",
          "type": "address"
        },
        {
          "indexed": true,
          "internalType": "address",
          "name": "operator",
          "type": "address"
        },
        {
          "indexed": false,
          "internalType": "bool",
          "name": "approved",
          "type": "bool"
        }
      ],
      "name": "ApprovalForAll",
      "type": "event"
    },
    {
      "anonymous": false,
      "inputs": [
        {
          "indexed": false,
          "internalType": "uint256",
          "name": "_fromTokenId",
          "type": "uint256"
        },
        {
          "indexed": false,
          "internalType": "uint256",
          "name": "_toTokenId",
          "type": "uint256"
        }
      ],
      "name": "BatchMetadataUpdate",
      "type": "event"
    },
    {
      "anonymous": false,
      "inputs": [
        {
          "indexed": true,
          "internalType": "uint256",
          "name": "tokenId",
          "type": "uint256"
        },
        {
          "indexed": false,
          "internalType": "string",
          "name": "newContentHash",
          "type": "string"
        }
      ],
      "name": "DocumentEdited",
      "type": "event"
    },
    {
      "anonymous": false,
      "inputs": [
        {
          "indexed": true,
          "internalType": "uint256",
          "name": "tokenId",
          "type": "uint256"
        },
        {
          "indexed": false,
          "internalType": "string",
          "name": "contentHash",
          "type": "string"
        },
        {
          "indexed": false,
          "internalType": "uint256",
          "name": "timestamp",
          "type": "uint256"
        }
      ],
      "name": "DocumentRegistered",
      "type": "event"
    },
    {
      "anonymous": false,
      "inputs": [
        {
          "indexed": false,
          "internalType": "uint256",
          "name": "_tokenId",
          "type": "uint256"
        }
      ],
      "name": "MetadataUpdate",
      "type": "event"
    },
    {
      "anonymous": false,
      "inputs": [
        {
          "indexed": true,
          "internalType": "uint256",
          "name": "tokenId",
          "type": "uint256"
        },
        {
          "indexed": false,
          "internalType": "string",
          "name": "metadataURI",
          "type": "string"
        }
      ],
      "name": "NFTMinted",
      "type": "event"
    },
    {
      "anonymous": false,
      "inputs": [
        {
          "indexed": true,
          "internalType": "bytes32",
          "name": "role",
          "type": "bytes32"
        },
        {
          "indexed": true,
          "internalType": "bytes32",
          "name": "previousAdminRole",
          "type": "bytes32"
        },
        {
          "indexed": true,
          "internalType": "bytes32",
          "name": "newAdminRole",
          "type": "bytes32"
        }
      ],
      "name": "RoleAdminChanged",
      "type": "event"
    },
    {
      "anonymous": false,
      "inputs": [
        {
          "indexed": true,
          "internalType": "bytes32",
          "name": "role",
          "type": "bytes32"
        },
        {
          "indexed": true,
          "internalType": "address",
          "name": "account",
          "type": "address"
        },
        {
          "indexed": true,
          "internalType": "address",
          "name": "sender",
          "type": "address"
        }
      ],
      "name": "RoleGranted",
      "type": "event"
    },
    {
      "anonymous": false,
      "inputs": [
        {
          "indexed": true,
          "internalType": "bytes32",
          "name": "role",
          "type": "bytes32"
        },
        {
          "indexed": true,
          "internalType": "address",
          "name": "account",
          "type": "address"
        },
        {
          "indexed": true,
          "internalType": "address",
          "name": "sender",
          "type": "address"
        }
      ],
      "name": "RoleRevoked",
      "type": "event"
    },
    {
      "anonymous": false,
      "inputs": [
        {
          "indexed": true,
          "internalType": "address",
          "name": "from",
          "type": "address"
        },
        {
          "indexed": true,
          "internalType": "address",
          "name": "to",
          "type": "address"
        },
        {
          "indexed": true,
          "internalType": "uint256",
          "name": "tokenId",
          "type": "uint256"
        }
      ],
      "name": "Transfer",
      "type": "event"
    },
    {
      "inputs": [],
      "name": "ADMIN_ROLE",
      "outputs": [
        {
          "internalType": "bytes32",
          "name": "",
          "type": "bytes32"
        }
      ],
      "stateMutability": "view",
      "type": "function"
    },
    {
      "inputs": [],
      "name": "DEFAULT_ADMIN_ROLE",
      "outputs": [
        {
          "internalType": "bytes32",
          "name": "",
          "type": "bytes32"
        }
      ],
      "stateMutability": "view",
      "type": "function"
    },
    {
      "inputs": [],
      "name": "EDITOR_ROLE",
      "outputs": [
        {
          "internalType": "bytes32",
          "name": "",
          "type": "bytes32"
        }
      ],
      "stateMutability": "view",
      "type": "function"
    },
    {
      "inputs": [
        {
          "internalType": "address",
          "name": "to",
          "type": "address"
        },
        {
          "internalType": "uint256",
          "name": "tokenId",
          "type": "uint256"
        }
      ],
      "name": "approve",
      "outputs": [],
      "stateMutability": "nonpayable",
      "type": "function"
    },
    {
      "inputs": [
        {
          "internalType": "address",
          "name": "owner",
          "type": "address"
        }
      ],
      "name": "balanceOf",
      "outputs": [
        {
          "internalType": "uint256",
          "name": "",
          "type": "uint256"
        }
      ],
      "stateMutability": "view",
      "type": "function"
    },
    {
      "inputs": [
        {
          "internalType": "uint256",
          "name": "",
          "type": "uint256"
        }
      ],
      "name": "documents",
      "outputs": [
        {
          "internalType": "uint256",
          "name": "tokenId",
          "type": "uint256"
        },
        {
          "internalType": "string",
          "name": "contentHash",
          "type": "string"
        },
        {
          "internalType": "uint256",
          "name": "timestamp",
          "type": "uint256"
        },
        {
          "internalType": "string",
          "name": "encryptedKit",
          "type": "string"
        },
        {
          "internalType": "string",
          "name": "metadataURI",
          "type": "string"
        },
        {
          "internalType": "bool",
          "name": "isMinted",
          "type": "bool"
        }
      ],
      "stateMutability": "view",
      "type": "function"
    },
    {
      "inputs": [
        {
          "internalType": "uint256",
          "name": "tokenId",
          "type": "uint256"
        },
        {
          "internalType": "string",
          "name": "newContentHash",
          "type": "string"
        }
      ],
      "name": "editDocument",
      "outputs": [],
      "stateMutability": "nonpayable",
      "type": "function"
    },
    {
      "inputs": [
        {
          "internalType": "uint256",
          "name": "tokenId",
          "type": "uint256"
        }
      ],
      "name": "getApproved",
      "outputs": [
        {
          "internalType": "address",
          "name": "",
          "type": "address"
        }
      ],
      "stateMutability": "view",
      "type": "function"
    },
    {
      "inputs": [
        {
          "internalType": "uint256",
          "name": "tokenId",
          "type": "uint256"
        }
      ],
      "name": "getDocument",
      "outputs": [
        {
          "components": [
            {
              "internalType": "uint256",
              "name": "tokenId",
              "type": "uint256"
            },
            {
              "internalType": "string",
              "name": "contentHash",
              "type": "string"
            },
            {
              "internalType": "uint256",
              "name": "timestamp",
              "type": "uint256"
            },
            {
              "internalType": "string",
              "name": "encryptedKit",
              "type": "string"
            },
            {
              "internalType": "string",
              "name": "metadataURI",
              "type": "string"
            },
            {
              "internalType": "bool",
              "name": "isMinted",
              "type": "bool"
            }
          ],
          "internalType": "struct DocumentNFT.Document",
          "name": "",
          "type": "tuple"
        }
      ],
      "stateMutability": "view",
      "type": "function"
    },
    {
      "inputs": [
        {
          "internalType": "bytes32",
          "name": "role",
          "type": "bytes32"
        }
      ],
      "name": "getRoleAdmin",
      "outputs": [
        {
          "internalType": "bytes32",
          "name": "",
          "type": "bytes32"
        }
      ],
      "stateMutability": "view",
      "type": "function"
    },
    {
      "inputs": [
        {
          "internalType": "bytes32",
          "name": "role",
          "type": "bytes32"
        },
        {
          "internalType": "address",
          "name": "account",
          "type": "address"
        }
      ],
      "name": "grantRole",
      "outputs": [],
      "stateMutability": "nonpayable",
      "type": "function"
    },
    {
      "inputs": [
        {
          "internalType": "bytes32",
          "name": "role",
          "type": "bytes32"
        },
        {
          "internalType": "address",
          "name": "account",
          "type": "address"
        }
      ],
      "name": "hasRole",
      "outputs": [
        {
          "internalType": "bool",
          "name": "",
          "type": "bool"
        }
      ],
      "stateMutability": "view",
      "type": "function"
    },
    {
      "inputs": [
        {
          "internalType": "address",
          "name": "owner",
          "type": "address"
        },
        {
          "internalType": "address",
          "name": "operator",
          "type": "address"
        }
      ],
      "name": "isApprovedForAll",
      "outputs": [
        {
          "internalType": "bool",
          "name": "",
          "type": "bool"
        }
      ],
      "stateMutability": "view",
      "type": "function"
    },
    {
      "inputs": [
        {
          "internalType": "uint256",
          "name": "tokenId",
          "type": "uint256"
        },
        {
          "internalType": "string",
          "name": "tokenURI",
          "type": "string"
        }
      ],
      "name": "mintNFT",
      "outputs": [],
      "stateMutability": "nonpayable",
      "type": "function"
    },
    {
      "inputs": [],
      "name": "name",
      "outputs": [
        {
          "internalType": "string",
          "name": "",
          "type": "string"
        }
      ],
      "stateMutability": "view",
      "type": "function"
    },
    {
      "inputs": [
        {
          "internalType": "uint256",
          "name": "tokenId",
          "type": "uint256"
        }
      ],
      "name": "ownerOf",
      "outputs": [
        {
          "internalType": "address",
          "name": "",
          "type": "address"
        }
      ],
      "stateMutability": "view",
      "type": "function"
    },
    {
      "inputs": [
        {
          "internalType": "string",
          "name": "contentHash",
          "type": "string"
        },
        {
          "internalType": "string",
          "name": "encryptedKit",
          "type": "string"
        }
      ],
      "name": "registerDocument",
      "outputs": [],
      "stateMutability": "nonpayable",
      "type": "function"
    },
    {
      "inputs": [
        {
          "internalType": "bytes32",
          "name": "role",
          "type": "bytes32"
        },
        {
          "internalType": "address",
          "name": "callerConfirmation",
          "type": "address"
        }
      ],
      "name": "renounceRole",
      "outputs": [],
      "stateMutability": "nonpayable",
      "type": "function"
    },
    {
      "inputs": [
        {
          "internalType": "bytes32",
          "name": "role",
          "type": "bytes32"
        },
        {
          "internalType": "address",
          "name": "account",
          "type": "address"
        }
      ],
      "name": "revokeRole",
      "outputs": [],
      "stateMutability": "nonpayable",
      "type": "function"
    },
    {
      "inputs": [
        {
          "internalType": "address",
          "name": "from",
          "type": "address"
        },
        {
          "internalType": "address",
          "name": "to",
          "type": "address"
        },
        {
          "internalType": "uint256",
          "name": "tokenId",
          "type": "uint256"
        }
      ],
      "name": "safeTransferFrom",
      "outputs": [],
      "stateMutability": "nonpayable",
      "type": "function"
    },
    {
      "inputs": [
        {
          "internalType": "address",
          "name": "from",
          "type": "address"
        },
        {
          "internalType": "address",
          "name": "to",
          "type": "address"
        },
        {
          "internalType": "uint256",
          "name": "tokenId",
          "type": "uint256"
        },
        {
          "internalType": "bytes",
          "name": "data",
          "type": "bytes"
        }
      ],
      "name": "safeTransferFrom",
      "outputs": [],
      "stateMutability": "nonpayable",
      "type": "function"
    },
    {
      "inputs": [
        {
          "internalType": "address",
          "name": "operator",
          "type": "address"
        },
        {
          "internalType": "bool",
          "name": "approved",
          "type": "bool"
        }
      ],
      "name": "setApprovalForAll",
      "outputs": [],
      "stateMutability": "nonpayable",
      "type": "function"
    },
    {
      "inputs": [
        {
          "internalType": "bytes4",
          "name": "interfaceId",
          "type": "bytes4"
        }
      ],
      "name": "supportsInterface",
      "outputs": [
        {
          "internalType": "bool",
          "name": "",
          "type": "bool"
        }
      ],
      "stateMutability": "view",
      "type": "function"
    },
    {
      "inputs": [],
      "name": "symbol",
      "outputs": [
        {
          "internalType": "string",
          "name": "",
          "type": "string"
        }
      ],
      "stateMutability": "view",
      "type": "function"
    },
    {
      "inputs": [
        {
          "internalType": "uint256",
          "name": "tokenId",
          "type": "uint256"
        }
      ],
      "name": "tokenURI",
      "outputs": [
        {
          "internalType": "string",
          "name": "",
          "type": "string"
        }
      ],
      "stateMutability": "view",
      "type": "function"
    },
    {
      "inputs": [
        {
          "internalType": "address",
          "name": "from",
          "type": "address"
        },
        {
          "internalType": "address",
          "name": "to",
          "type": "address"
        },
        {
          "internalType": "uint256",
          "name": "tokenId",
          "type": "uint256"
        }
      ],
      "name": "transferFrom",
      "outputs": [],
      "stateMutability": "nonpayable",
      "type": "function"
    }
  ],
  "bytecode": "0x608060405260016008553480156200001657600080fd5b506040518060400160405280600b81526020016a111bd8dd5b595b9d13919560aa1b815250604051806040016040528060048152602001631113919560e21b815250816000908162000069919062000218565b50600162000078828262000218565b506200008a91506000905033620000be565b50620000b77fa49807205ce4d355092ef5a8a18f56e8913cf4a201fbe287825b095693c2177533620000be565b50620002e4565b60008281526007602090815260408083206001600160a01b038516845290915281205460ff16620001675760008381526007602090815260408083206001600160a01b03861684529091529020805460ff191660011790556200011e3390565b6001600160a01b0316826001600160a01b0316847f2f8788117e7eff1d82e926ec794901d17c78024a50270940304540a733656f0d60405160405180910390a45060016200016b565b5060005b92915050565b634e487b7160e01b600052604160045260246000fd5b600181811c908216806200019c57607f821691505b602082108103620001bd57634e487b7160e01b600052602260045260246000fd5b50919050565b601f82111562000213576000816000526020600020601f850160051c81016020861015620001ee5750805b601f850160051c820191505b818110156200020f57828155600101620001fa565b5050505b505050565b81516001600160401b0381111562000234576200023462000171565b6200024c8162000245845462000187565b84620001c3565b602080601f8311600181146200028457600084156200026b5750858301515b600019600386901b1c1916600185901b1785556200020f565b600085815260208120601f198616915b82811015620002b55788860151825594840194600190910190840162000294565b5085821015620002d45787850151600019600388901b60f8161c191681555b5050505050600190811b01905550565b611fbd80620002f46000396000f3fe608060405234801561001057600080fd5b506004361061018e5760003560e01c80636352211e116100de578063a22cb46511610097578063c2ed2b0511610071578063c2ed2b05146103a3578063c87b56dd146103c8578063d547741f146103db578063e985e9c5146103ee57600080fd5b8063a22cb46514610356578063a853211a14610369578063b88d4fde1461039057600080fd5b80636352211e146102e657806370a08231146102f957806375b238fc1461030c57806391d148541461033357806395d89b4114610346578063a217fddf1461034e57600080fd5b806323b872dd1161014b57806336568abe1161012557806336568abe1461028d5780633f9b250a146102a057806342842e0e146102c057806348a1c590146102d357600080fd5b806323b872dd14610236578063248a9ca3146102495780632f2ff15d1461027a57600080fd5b806301ffc9a71461019357806306fdde03146101bb578063081812fc146101d0578063095ea7b3146101fb5780631a0c8fa0146102105780631c49ea9114610223575b600080fd5b6101a66101a13660046118c3565b610401565b60405190151581526020015b60405180910390f35b6101c3610421565b6040516101b29190611930565b6101e36101de366004611943565b6104b3565b6040516001600160a01b0390911681526020016101b2565b61020e610209366004611978565b6104dc565b005b61020e61021e366004611a4e565b6104eb565b61020e610231366004611a95565b610642565b61020e610244366004611aef565b610773565b61026c610257366004611943565b60009081526007602052604090206001015490565b6040519081526020016101b2565b61020e610288366004611b2b565b6107fe565b61020e61029b366004611b2b565b610823565b6102b36102ae366004611943565b61085b565b6040516101b29190611b57565b61020e6102ce366004611aef565b610ac2565b61020e6102e1366004611a4e565b610add565b6101e36102f4366004611943565b610b80565b61026c610307366004611bdc565b610b8b565b61026c7fa49807205ce4d355092ef5a8a18f56e8913cf4a201fbe287825b095693c2177581565b6101a6610341366004611b2b565b610bd3565b6101c3610bfe565b61026c600081565b61020e610364366004611bf7565b610c0d565b61026c7f21d1167972f621f75904fb065136bc8b53c7ba1c60ccd3a7758fbee465851e9c81565b61020e61039e366004611c33565b610c18565b6103b66103b1366004611943565b610c2f565b6040516101b296959493929190611caf565b6101c36103d6366004611943565b610dff565b61020e6103e9366004611b2b565b610f10565b6101a66103fc366004611d0a565b610f35565b600061040c82610f63565b8061041b575061041b82610f88565b92915050565b60606000805461043090611d34565b80601f016020809104026020016040519081016040528092919081815260200182805461045c90611d34565b80156104a95780601f1061047e576101008083540402835291602001916104a9565b820191906000526020600020905b81548152906001019060200180831161048c57829003601f168201915b5050505050905090565b60006104be82610fad565b506000828152600460205260409020546001600160a01b031661041b565b6104e7828233610fe6565b5050565b7fa49807205ce4d355092ef5a8a18f56e8913cf4a201fbe287825b095693c2177561051581610ff3565b600083815260096020526040812054900361054b5760405162461bcd60e51b815260040161054290611d6e565b60405180910390fd5b60008381526009602052604090206005015460ff16156105b95760405162461bcd60e51b8152602060048201526024808201527f4e465420616c7265616479206d696e74656420666f72207468697320646f63756044820152631b595b9d60e21b6064820152608401610542565b60008381526009602052604090206004016105d48382611df5565b506000838152600960205260409020600501805460ff191660011790556105fb3384611000565b6106058383611065565b827f9e0bfaf38878aad3ebd19b8c8065288eb130f0499a7378363d4652515588ac96836040516106359190611930565b60405180910390a2505050565b7f21d1167972f621f75904fb065136bc8b53c7ba1c60ccd3a7758fbee465851e9c61066c81610ff3565b600880546000918261067d83611eb5565b909155506040805160c0810182528281526020808201888152428385015260608301889052835180830185526000808252608085019190915260a0840181905285815260099092529290208151815591519293509160018201906106e19082611df5565b5060408201516002820155606082015160038201906107009082611df5565b50608082015160048201906107159082611df5565b5060a091909101516005909101805460ff191691151591909117905560405181907f18d24356691c1ac060020e64e4de0f7c6a8f89abbc4fddbbfa61ee4083a9fb96906107659087904290611edc565b60405180910390a250505050565b6001600160a01b03821661079d57604051633250574960e11b815260006004820152602401610542565b60006107aa8383336110b5565b9050836001600160a01b0316816001600160a01b0316146107f8576040516364283d7b60e01b81526001600160a01b0380861660048301526024820184905282166044820152606401610542565b50505050565b60008281526007602052604090206001015461081981610ff3565b6107f883836111ae565b6001600160a01b038116331461084c5760405163334bd91960e11b815260040160405180910390fd5b6108568282611242565b505050565b6108966040518060c0016040528060008152602001606081526020016000815260200160608152602001606081526020016000151581525090565b60008281526009602052604081205490036108c35760405162461bcd60e51b815260040161054290611d6e565b600960008381526020019081526020016000206040518060c0016040529081600082015481526020016001820180546108fb90611d34565b80601f016020809104026020016040519081016040528092919081815260200182805461092790611d34565b80156109745780601f1061094957610100808354040283529160200191610974565b820191906000526020600020905b81548152906001019060200180831161095757829003601f168201915b505050505081526020016002820154815260200160038201805461099790611d34565b80601f01602080910402602001604051908101604052809291908181526020018280546109c390611d34565b8015610a105780601f106109e557610100808354040283529160200191610a10565b820191906000526020600020905b8154815290600101906020018083116109f357829003601f168201915b50505050508152602001600482018054610a2990611d34565b80601f0160208091040260200160405190810160405280929190818152602001828054610a5590611d34565b8015610aa25780601f10610a7757610100808354040283529160200191610aa2565b820191906000526020600020905b815481529060010190602001808311610a8557829003601f168201915b50505091835250506005919091015460ff16151560209091015292915050565b61085683838360405180602001604052806000815250610c18565b7f21d1167972f621f75904fb065136bc8b53c7ba1c60ccd3a7758fbee465851e9c610b0781610ff3565b6000838152600960205260408120549003610b345760405162461bcd60e51b815260040161054290611d6e565b6000838152600960205260409020600101610b4f8382611df5565b50827f9748dd87db0e208ae5a14096b4f59e5786347fe487e069e439745b0a679be0f5836040516106359190611930565b600061041b82610fad565b60006001600160a01b038216610bb7576040516322718ad960e21b815260006004820152602401610542565b506001600160a01b031660009081526003602052604090205490565b60009182526007602090815260408084206001600160a01b0393909316845291905290205460ff1690565b60606001805461043090611d34565b6104e73383836112af565b610c23848484610773565b6107f88484848461134e565b60096020526000908152604090208054600182018054919291610c5190611d34565b80601f0160208091040260200160405190810160405280929190818152602001828054610c7d90611d34565b8015610cca5780601f10610c9f57610100808354040283529160200191610cca565b820191906000526020600020905b815481529060010190602001808311610cad57829003601f168201915b505050505090806002015490806003018054610ce590611d34565b80601f0160208091040260200160405190810160405280929190818152602001828054610d1190611d34565b8015610d5e5780601f10610d3357610100808354040283529160200191610d5e565b820191906000526020600020905b815481529060010190602001808311610d4157829003601f168201915b505050505090806004018054610d7390611d34565b80601f0160208091040260200160405190810160405280929190818152602001828054610d9f90611d34565b8015610dec5780601f10610dc157610100808354040283529160200191610dec565b820191906000526020600020905b815481529060010190602001808311610dcf57829003601f168201915b5050506005909301549192505060ff1686565b6060610e0a82610fad565b5060008281526006602052604081208054610e2490611d34565b80601f0160208091040260200160405190810160405280929190818152602001828054610e5090611d34565b8015610e9d5780601f10610e7257610100808354040283529160200191610e9d565b820191906000526020600020905b815481529060010190602001808311610e8057829003601f168201915b505050505090506000610ebb60408051602081019091526000815290565b90508051600003610ecd575092915050565b815115610eff578082604051602001610ee7929190611efe565b60405160208183030381529060405292505050919050565b610f0884611477565b949350505050565b600082815260076020526040902060010154610f2b81610ff3565b6107f88383611242565b6001600160a01b03918216600090815260056020908152604080832093909416825291909152205460ff1690565b60006001600160e01b03198216632483248360e11b148061041b575061041b826114ec565b60006001600160e01b03198216637965db0b60e01b148061041b575061041b82610f63565b6000818152600260205260408120546001600160a01b03168061041b57604051637e27328960e01b815260048101849052602401610542565b610856838383600161153c565b610ffd8133611642565b50565b6001600160a01b03821661102a57604051633250574960e11b815260006004820152602401610542565b6000611038838360006110b5565b90506001600160a01b03811615610856576040516339e3563760e11b815260006004820152602401610542565b600082815260066020526040902061107d8282611df5565b506040518281527ff8e1a15aba9398e019f0b49df1a4fde98ee17ae345cb5f6b5e2c27f5033e8ce79060200160405180910390a15050565b6000828152600260205260408120546001600160a01b03908116908316156110e2576110e281848661167b565b6001600160a01b03811615611120576110ff60008560008061153c565b6001600160a01b038116600090815260036020526040902080546000190190555b6001600160a01b0385161561114f576001600160a01b0385166000908152600360205260409020805460010190555b60008481526002602052604080822080546001600160a01b0319166001600160a01b0389811691821790925591518793918516917fddf252ad1be2c89b69c2b068fc378daa952ba7f163c4a11628f55a4df523b3ef91a4949350505050565b60006111ba8383610bd3565b61123a5760008381526007602090815260408083206001600160a01b03861684529091529020805460ff191660011790556111f23390565b6001600160a01b0316826001600160a01b0316847f2f8788117e7eff1d82e926ec794901d17c78024a50270940304540a733656f0d60405160405180910390a450600161041b565b50600061041b565b600061124e8383610bd3565b1561123a5760008381526007602090815260408083206001600160a01b0386168085529252808320805460ff1916905551339286917ff6391f5c32d9c69d2a47ea670b442974b53935d1edc7fd64eb21e047a839171b9190a450600161041b565b6001600160a01b0382166112e157604051630b61174360e31b81526001600160a01b0383166004820152602401610542565b6001600160a01b03838116600081815260056020908152604080832094871680845294825291829020805460ff191686151590811790915591519182527f17307eab39ab6107e8899845ad3d59bd9653f200f220920489ca2b5937696c31910160405180910390a3505050565b6001600160a01b0383163b156107f857604051630a85bd0160e11b81526001600160a01b0384169063150b7a0290611390903390889087908790600401611f2d565b6020604051808303816000875af19250505080156113cb575060408051601f3d908101601f191682019092526113c891810190611f6a565b60015b611434573d8080156113f9576040519150601f19603f3d011682016040523d82523d6000602084013e6113fe565b606091505b50805160000361142c57604051633250574960e11b81526001600160a01b0385166004820152602401610542565b805181602001fd5b6001600160e01b03198116630a85bd0160e11b1461147057604051633250574960e11b81526001600160a01b0385166004820152602401610542565b5050505050565b606061148282610fad565b50600061149a60408051602081019091526000815290565b905060008151116114ba57604051806020016040528060008152506114e5565b806114c4846116df565b6040516020016114d5929190611efe565b6040516020818303038152906040525b9392505050565b60006001600160e01b031982166380ac58cd60e01b148061151d57506001600160e01b03198216635b5e139f60e01b145b8061041b57506301ffc9a760e01b6001600160e01b031983161461041b565b808061155057506001600160a01b03821615155b1561161257600061156084610fad565b90506001600160a01b0383161580159061158c5750826001600160a01b0316816001600160a01b031614155b801561159f575061159d8184610f35565b155b156115c85760405163a9fbf51f60e01b81526001600160a01b0384166004820152602401610542565b81156116105783856001600160a01b0316826001600160a01b03167f8c5be1e5ebec7d5bd14f71427d1e84f3dd0314c0f7b2291e5b200ac8c7c3b92560405160405180910390a45b505b5050600090815260046020526040902080546001600160a01b0319166001600160a01b0392909216919091179055565b61164c8282610bd3565b6104e75760405163e2517d3f60e01b81526001600160a01b038216600482015260248101839052604401610542565b611686838383611772565b610856576001600160a01b0383166116b457604051637e27328960e01b815260048101829052602401610542565b60405163177e802f60e01b81526001600160a01b038316600482015260248101829052604401610542565b606060006116ec836117d5565b600101905060008167ffffffffffffffff81111561170c5761170c6119a2565b6040519080825280601f01601f191660200182016040528015611736576020820181803683370190505b5090508181016020015b600019016f181899199a1a9b1b9c1cb0b131b232b360811b600a86061a8153600a850494508461174057509392505050565b60006001600160a01b03831615801590610f085750826001600160a01b0316846001600160a01b031614806117ac57506117ac8484610f35565b80610f085750506000908152600460205260409020546001600160a01b03908116911614919050565b60008072184f03e93ff9f4daa797ed6e38ed64bf6a1f0160401b83106118145772184f03e93ff9f4daa797ed6e38ed64bf6a1f0160401b830492506040015b6d04ee2d6d415b85acef81000000008310611840576d04ee2d6d415b85acef8100000000830492506020015b662386f26fc10000831061185e57662386f26fc10000830492506010015b6305f5e1008310611876576305f5e100830492506008015b612710831061188a57612710830492506004015b6064831061189c576064830492506002015b600a831061041b5760010192915050565b6001600160e01b031981168114610ffd57600080fd5b6000602082840312156118d557600080fd5b81356114e5816118ad565b60005b838110156118fb5781810151838201526020016118e3565b50506000910152565b6000815180845261191c8160208601602086016118e0565b601f01601f19169290920160200192915050565b6020815260006114e56020830184611904565b60006020828403121561195557600080fd5b5035919050565b80356001600160a01b038116811461197357600080fd5b919050565b6000806040838503121561198b57600080fd5b6119948361195c565b946020939093013593505050565b634e487b7160e01b600052604160045260246000fd5b600067ffffffffffffffff808411156119d3576119d36119a2565b604051601f8501601f19908116603f011681019082821181831017156119fb576119fb6119a2565b81604052809350858152868686011115611a1457600080fd5b858560208301376000602087830101525050509392505050565b600082601f830112611a3f57600080fd5b6114e5838335602085016119b8565b60008060408385031215611a6157600080fd5b82359150602083013567ffffffffffffffff811115611a7f57600080fd5b611a8b85828601611a2e565b9150509250929050565b60008060408385031215611aa857600080fd5b823567ffffffffffffffff80821115611ac057600080fd5b611acc86838701611a2e565b93506020850135915080821115611ae257600080fd5b50611a8b85828601611a2e565b600080600060608486031215611b0457600080fd5b611b0d8461195c565b9250611b1b6020850161195c565b9150604084013590509250925092565b60008060408385031215611b3e57600080fd5b82359150611b4e6020840161195c565b90509250929050565b60208152815160208201526000602083015160c06040840152611b7d60e0840182611904565b9050604084015160608401526060840151601f1980858403016080860152611ba58383611904565b925060808601519150808584030160a086015250611bc38282611904565b91505060a0840151151560c08401528091505092915050565b600060208284031215611bee57600080fd5b6114e58261195c565b60008060408385031215611c0a57600080fd5b611c138361195c565b915060208301358015158114611c2857600080fd5b809150509250929050565b60008060008060808587031215611c4957600080fd5b611c528561195c565b9350611c606020860161195c565b925060408501359150606085013567ffffffffffffffff811115611c8357600080fd5b8501601f81018713611c9457600080fd5b611ca3878235602084016119b8565b91505092959194509250565b86815260c060208201526000611cc860c0830188611904565b8660408401528281036060840152611ce08187611904565b90508281036080840152611cf48186611904565b91505082151560a0830152979650505050505050565b60008060408385031215611d1d57600080fd5b611d268361195c565b9150611b4e6020840161195c565b600181811c90821680611d4857607f821691505b602082108103611d6857634e487b7160e01b600052602260045260246000fd5b50919050565b60208082526017908201527f446f63756d656e7420646f6573206e6f74206578697374000000000000000000604082015260600190565b601f821115610856576000816000526020600020601f850160051c81016020861015611dce5750805b601f850160051c820191505b81811015611ded57828155600101611dda565b505050505050565b815167ffffffffffffffff811115611e0f57611e0f6119a2565b611e2381611e1d8454611d34565b84611da5565b602080601f831160018114611e585760008415611e405750858301515b600019600386901b1c1916600185901b178555611ded565b600085815260208120601f198616915b82811015611e8757888601518255948401946001909101908401611e68565b5085821015611ea55787850151600019600388901b60f8161c191681555b5050505050600190811b01905550565b600060018201611ed557634e487b7160e01b600052601160045260246000fd5b5060010190565b604081526000611eef6040830185611904565b90508260208301529392505050565b60008351611f108184602088016118e0565b835190830190611f248183602088016118e0565b01949350505050565b6001600160a01b0385811682528416602082015260408101839052608060608201819052600090611f6090830184611904565b9695505050505050565b600060208284031215611f7c57600080fd5b81516114e5816118ad56fea26469706673582212202869e7a21b1d555d016bebf41fb463ff764a2d58835eafefe9468f32f615161e64736f6c63430008180033",
  "linkReferences": {},
  "deployedLinkReferences": {}
}