{
  "_format": "hh-sol-artifact-1",
  "contractName": "ExcerptTracker",
  "sourceName": "contracts/ExcerptTracker.sol",
  "abi": [
    {
      "inputs": [
        {
          "internalType": "string",
          "name": "genesisHash",
          "type": "string"
        }
      ],
      "stateMutability": "nonpayable",
      "type": "constructor"
    },
    {
      "anonymous": false,
      "inputs": [
        {
          "indexed": false,
          "internalType": "uint256",
          "name": "index",
          "type": "uint256"
        },
        {
          "indexed": false,
          "internalType": "uint256",
          "name": "timestamp",
          "type": "uint256"
        },
        {
          "indexed": false,
          "internalType": "string",
          "name": "hash",
          "type": "string"
        },
        {
          "indexed": false,
          "internalType": "string",
          "name": "previousHash",
          "type": "string"
        }
      ],
      "name": "BlockCreated",
      "type": "event"
    },
    {
      "inputs": [
        {
          "internalType": "uint256",
          "name": "",
          "type": "uint256"
        }
      ],
      "name": "blocks",
      "outputs": [
        {
          "internalType": "uint256",
          "name": "index",
          "type": "uint256"
        },
        {
          "internalType": "uint256",
          "name": "timestamp",
          "type": "uint256"
        },
        {
          "internalType": "string",
          "name": "hash",
          "type": "string"
        },
        {
          "internalType": "string",
          "name": "previousHash",
          "type": "string"
        }
      ],
      "stateMutability": "view",
      "type": "function"
    },
    {
      "inputs": [
        {
          "internalType": "string",
          "name": "hash",
          "type": "string"
        }
      ],
      "name": "createBlock",
      "outputs": [],
      "stateMutability": "nonpayable",
      "type": "function"
    },
    {
      "inputs": [],
      "name": "getAllBlocks",
      "outputs": [
        {
          "components": [
            {
              "internalType": "uint256",
              "name": "index",
              "type": "uint256"
            },
            {
              "internalType": "uint256",
              "name": "timestamp",
              "type": "uint256"
            },
            {
              "internalType": "string",
              "name": "hash",
              "type": "string"
            },
            {
              "internalType": "string",
              "name": "previousHash",
              "type": "string"
            }
          ],
          "internalType": "struct ExcerptTracker.Block[]",
          "name": "",
          "type": "tuple[]"
        }
      ],
      "stateMutability": "view",
      "type": "function"
    },
    {
      "inputs": [
        {
          "internalType": "uint256",
          "name": "index",
          "type": "uint256"
        }
      ],
      "name": "getBlock",
      "outputs": [
        {
          "components": [
            {
              "internalType": "uint256",
              "name": "index",
              "type": "uint256"
            },
            {
              "internalType": "uint256",
              "name": "timestamp",
              "type": "uint256"
            },
            {
              "internalType": "string",
              "name": "hash",
              "type": "string"
            },
            {
              "internalType": "string",
              "name": "previousHash",
              "type": "string"
            }
          ],
          "internalType": "struct ExcerptTracker.Block",
          "name": "",
          "type": "tuple"
        }
      ],
      "stateMutability": "view",
      "type": "function"
    },
    {
      "inputs": [],
      "name": "owner",
      "outputs": [
        {
          "internalType": "address",
          "name": "",
          "type": "address"
        }
      ],
      "stateMutability": "view",
      "type": "function"
    }
  ],
  "bytecode": "0x60806040523480156200001157600080fd5b506040516200190a3803806200190a833981810160405281019062000037919062000338565b33600160006101000a81548173ffffffffffffffffffffffffffffffffffffffff021916908373ffffffffffffffffffffffffffffffffffffffff160217905550620000bf816040518060400160405280600181526020017f3000000000000000000000000000000000000000000000000000000000000000815250620000c660201b60201c565b5062000779565b60006040518060800160405280600080549050815260200142815260200184815260200183815250908060018154018082558091505060019003906000526020600020906004020160009091909190915060008201518160000155602082015181600101556040820151816002019081620001429190620005d4565b5060608201518160030190816200015a9190620005d4565b5050507f9c82833670ceb8ad97f20a9eab402cf3c946dbacb972bce1a0671faa456de7996000805490504284846040516200019994939291906200071e565b60405180910390a15050565b6000604051905090565b600080fd5b600080fd5b600080fd5b600080fd5b6000601f19601f8301169050919050565b7f4e487b7100000000000000000000000000000000000000000000000000000000600052604160045260246000fd5b6200020e82620001c3565b810181811067ffffffffffffffff8211171562000230576200022f620001d4565b5b80604052505050565b600062000245620001a5565b905062000253828262000203565b919050565b600067ffffffffffffffff821115620002765762000275620001d4565b5b6200028182620001c3565b9050602081019050919050565b60005b83811015620002ae57808201518184015260208101905062000291565b60008484015250505050565b6000620002d1620002cb8462000258565b62000239565b905082815260208101848484011115620002f057620002ef620001be565b5b620002fd8482856200028e565b509392505050565b600082601f8301126200031d576200031c620001b9565b5b81516200032f848260208601620002ba565b91505092915050565b600060208284031215620003515762000350620001af565b5b600082015167ffffffffffffffff811115620003725762000371620001b4565b5b620003808482850162000305565b91505092915050565b600081519050919050565b7f4e487b7100000000000000000000000000000000000000000000000000000000600052602260045260246000fd5b60006002820490506001821680620003dc57607f821691505b602082108103620003f257620003f162000394565b5b50919050565b60008190508160005260206000209050919050565b60006020601f8301049050919050565b600082821b905092915050565b6000600883026200045c7fffffffffffffffffffffffffffffffffffffffffffffffffffffffffffffffff826200041d565b6200046886836200041d565b95508019841693508086168417925050509392505050565b6000819050919050565b6000819050919050565b6000620004b5620004af620004a98462000480565b6200048a565b62000480565b9050919050565b6000819050919050565b620004d18362000494565b620004e9620004e082620004bc565b8484546200042a565b825550505050565b600090565b62000500620004f1565b6200050d818484620004c6565b505050565b5b81811015620005355762000529600082620004f6565b60018101905062000513565b5050565b601f82111562000584576200054e81620003f8565b62000559846200040d565b8101602085101562000569578190505b6200058162000578856200040d565b83018262000512565b50505b505050565b600082821c905092915050565b6000620005a96000198460080262000589565b1980831691505092915050565b6000620005c4838362000596565b9150826002028217905092915050565b620005df8262000389565b67ffffffffffffffff811115620005fb57620005fa620001d4565b5b620006078254620003c3565b6200061482828562000539565b600060209050601f8311600181146200064c576000841562000637578287015190505b620006438582620005b6565b865550620006b3565b601f1984166200065c86620003f8565b60005b8281101562000686578489015182556001820191506020850194506020810190506200065f565b86831015620006a65784890151620006a2601f89168262000596565b8355505b6001600288020188555050505b505050505050565b620006c68162000480565b82525050565b600082825260208201905092915050565b6000620006ea8262000389565b620006f68185620006cc565b9350620007088185602086016200028e565b6200071381620001c3565b840191505092915050565b6000608082019050620007356000830187620006bb565b620007446020830186620006bb565b8181036040830152620007588185620006dd565b905081810360608301526200076e8184620006dd565b905095945050505050565b61118180620007896000396000f3fe608060405234801561001057600080fd5b50600436106100575760003560e01c806304c075691461005c5780634fdafde81461008c5780638da5cb5b146100a857806393fa7126146100c6578063f25b3f99146100e4575b600080fd5b61007660048036038101906100719190610843565b610117565b6040516100839190610979565b60405180910390f35b6100a660048036038101906100a19190610ad0565b61028b565b005b6100b06103eb565b6040516100bd9190610b5a565b60405180910390f35b6100ce610411565b6040516100db9190610ca1565b60405180910390f35b6100fe60048036038101906100f99190610843565b6105a8565b60405161010e9493929190610d1c565b60405180910390f35b61011f6107d1565b6000828154811061013357610132610d6f565b5b9060005260206000209060040201604051806080016040529081600082015481526020016001820154815260200160028201805461017090610dcd565b80601f016020809104026020016040519081016040528092919081815260200182805461019c90610dcd565b80156101e95780601f106101be576101008083540402835291602001916101e9565b820191906000526020600020905b8154815290600101906020018083116101cc57829003601f168201915b5050505050815260200160038201805461020290610dcd565b80601f016020809104026020016040519081016040528092919081815260200182805461022e90610dcd565b801561027b5780601f106102505761010080835404028352916020019161027b565b820191906000526020600020905b81548152906001019060200180831161025e57829003601f168201915b5050505050815250509050919050565b600160009054906101000a900473ffffffffffffffffffffffffffffffffffffffff1673ffffffffffffffffffffffffffffffffffffffff163373ffffffffffffffffffffffffffffffffffffffff161461031b576040517f08c379a000000000000000000000000000000000000000000000000000000000815260040161031290610e4a565b60405180910390fd5b60008060016000805490506103309190610e99565b8154811061034157610340610d6f565b5b9060005260206000209060040201600201805461035d90610dcd565b80601f016020809104026020016040519081016040528092919081815260200182805461038990610dcd565b80156103d65780601f106103ab576101008083540402835291602001916103d6565b820191906000526020600020905b8154815290600101906020018083116103b957829003601f168201915b505050505090506103e782826106f8565b5050565b600160009054906101000a900473ffffffffffffffffffffffffffffffffffffffff1681565b60606000805480602002602001604051908101604052809291908181526020016000905b8282101561059f5783829060005260206000209060040201604051806080016040529081600082015481526020016001820154815260200160028201805461047c90610dcd565b80601f01602080910402602001604051908101604052809291908181526020018280546104a890610dcd565b80156104f55780601f106104ca576101008083540402835291602001916104f5565b820191906000526020600020905b8154815290600101906020018083116104d857829003601f168201915b5050505050815260200160038201805461050e90610dcd565b80601f016020809104026020016040519081016040528092919081815260200182805461053a90610dcd565b80156105875780601f1061055c57610100808354040283529160200191610587565b820191906000526020600020905b81548152906001019060200180831161056a57829003601f168201915b50505050508152505081526020019060010190610435565b50505050905090565b600081815481106105b857600080fd5b90600052602060002090600402016000915090508060000154908060010154908060020180546105e790610dcd565b80601f016020809104026020016040519081016040528092919081815260200182805461061390610dcd565b80156106605780601f1061063557610100808354040283529160200191610660565b820191906000526020600020905b81548152906001019060200180831161064357829003601f168201915b50505050509080600301805461067590610dcd565b80601f01602080910402602001604051908101604052809291908181526020018280546106a190610dcd565b80156106ee5780601f106106c3576101008083540402835291602001916106ee565b820191906000526020600020905b8154815290600101906020018083116106d157829003601f168201915b5050505050905084565b600060405180608001604052806000805490508152602001428152602001848152602001838152509080600181540180825580915050600190039060005260206000209060040201600090919091909150600082015181600001556020820151816001015560408201518160020190816107729190611079565b5060608201518160030190816107889190611079565b5050507f9c82833670ceb8ad97f20a9eab402cf3c946dbacb972bce1a0671faa456de7996000805490504284846040516107c59493929190610d1c565b60405180910390a15050565b6040518060800160405280600081526020016000815260200160608152602001606081525090565b6000604051905090565b600080fd5b600080fd5b6000819050919050565b6108208161080d565b811461082b57600080fd5b50565b60008135905061083d81610817565b92915050565b60006020828403121561085957610858610803565b5b60006108678482850161082e565b91505092915050565b6108798161080d565b82525050565b600081519050919050565b600082825260208201905092915050565b60005b838110156108b957808201518184015260208101905061089e565b60008484015250505050565b6000601f19601f8301169050919050565b60006108e18261087f565b6108eb818561088a565b93506108fb81856020860161089b565b610904816108c5565b840191505092915050565b60006080830160008301516109276000860182610870565b50602083015161093a6020860182610870565b506040830151848203604086015261095282826108d6565b9150506060830151848203606086015261096c82826108d6565b9150508091505092915050565b60006020820190508181036000830152610993818461090f565b905092915050565b600080fd5b600080fd5b7f4e487b7100000000000000000000000000000000000000000000000000000000600052604160045260246000fd5b6109dd826108c5565b810181811067ffffffffffffffff821117156109fc576109fb6109a5565b5b80604052505050565b6000610a0f6107f9565b9050610a1b82826109d4565b919050565b600067ffffffffffffffff821115610a3b57610a3a6109a5565b5b610a44826108c5565b9050602081019050919050565b82818337600083830152505050565b6000610a73610a6e84610a20565b610a05565b905082815260208101848484011115610a8f57610a8e6109a0565b5b610a9a848285610a51565b509392505050565b600082601f830112610ab757610ab661099b565b5b8135610ac7848260208601610a60565b91505092915050565b600060208284031215610ae657610ae5610803565b5b600082013567ffffffffffffffff811115610b0457610b03610808565b5b610b1084828501610aa2565b91505092915050565b600073ffffffffffffffffffffffffffffffffffffffff82169050919050565b6000610b4482610b19565b9050919050565b610b5481610b39565b82525050565b6000602082019050610b6f6000830184610b4b565b92915050565b600081519050919050565b600082825260208201905092915050565b6000819050602082019050919050565b6000608083016000830151610bb96000860182610870565b506020830151610bcc6020860182610870565b5060408301518482036040860152610be482826108d6565b91505060608301518482036060860152610bfe82826108d6565b9150508091505092915050565b6000610c178383610ba1565b905092915050565b6000602082019050919050565b6000610c3782610b75565b610c418185610b80565b935083602082028501610c5385610b91565b8060005b85811015610c8f5784840389528151610c708582610c0b565b9450610c7b83610c1f565b925060208a01995050600181019050610c57565b50829750879550505050505092915050565b60006020820190508181036000830152610cbb8184610c2c565b905092915050565b610ccc8161080d565b82525050565b600082825260208201905092915050565b6000610cee8261087f565b610cf88185610cd2565b9350610d0881856020860161089b565b610d11816108c5565b840191505092915050565b6000608082019050610d316000830187610cc3565b610d3e6020830186610cc3565b8181036040830152610d508185610ce3565b90508181036060830152610d648184610ce3565b905095945050505050565b7f4e487b7100000000000000000000000000000000000000000000000000000000600052603260045260246000fd5b7f4e487b7100000000000000000000000000000000000000000000000000000000600052602260045260246000fd5b60006002820490506001821680610de557607f821691505b602082108103610df857610df7610d9e565b5b50919050565b7f4f6e6c79206f776e65722063616e20637265617465206e657720626c6f636b73600082015250565b6000610e34602083610cd2565b9150610e3f82610dfe565b602082019050919050565b60006020820190508181036000830152610e6381610e27565b9050919050565b7f4e487b7100000000000000000000000000000000000000000000000000000000600052601160045260246000fd5b6000610ea48261080d565b9150610eaf8361080d565b9250828203905081811115610ec757610ec6610e6a565b5b92915050565b60008190508160005260206000209050919050565b60006020601f8301049050919050565b600082821b905092915050565b600060088302610f2f7fffffffffffffffffffffffffffffffffffffffffffffffffffffffffffffffff82610ef2565b610f398683610ef2565b95508019841693508086168417925050509392505050565b6000819050919050565b6000610f76610f71610f6c8461080d565b610f51565b61080d565b9050919050565b6000819050919050565b610f9083610f5b565b610fa4610f9c82610f7d565b848454610eff565b825550505050565b600090565b610fb9610fac565b610fc4818484610f87565b505050565b5b81811015610fe857610fdd600082610fb1565b600181019050610fca565b5050565b601f82111561102d57610ffe81610ecd565b61100784610ee2565b81016020851015611016578190505b61102a61102285610ee2565b830182610fc9565b50505b505050565b600082821c905092915050565b600061105060001984600802611032565b1980831691505092915050565b6000611069838361103f565b9150826002028217905092915050565b6110828261087f565b67ffffffffffffffff81111561109b5761109a6109a5565b5b6110a58254610dcd565b6110b0828285610fec565b600060209050601f8311600181146110e357600084156110d1578287015190505b6110db858261105d565b865550611143565b601f1984166110f186610ecd565b60005b82811015611119578489015182556001820191506020850194506020810190506110f4565b868310156111365784890151611132601f89168261103f565b8355505b6001600288020188555050505b50505050505056fea2646970667358221220c0c9c03adbf8b07406624b26453249d12e002237cbe9714691449e2753b28cc464736f6c63430008180033",
  "linkReferences": {},
  "deployedLinkReferences": {}
}